{
  "contractName": "Masks",
  "abi": [
    {
      "inputs": [
        {
          "internalType": "string",
          "name": "name",
          "type": "string"
        },
        {
          "internalType": "string",
          "name": "symbol",
          "type": "string"
        },
        {
          "internalType": "address",
          "name": "nctAddress",
          "type": "address"
        }
      ],
      "stateMutability": "nonpayable",
      "type": "constructor"
    },
    {
      "anonymous": false,
      "inputs": [
        {
          "indexed": true,
          "internalType": "address",
          "name": "owner",
          "type": "address"
        },
        {
          "indexed": true,
          "internalType": "address",
          "name": "approved",
          "type": "address"
        },
        {
          "indexed": true,
          "internalType": "uint256",
          "name": "tokenId",
          "type": "uint256"
        }
      ],
      "name": "Approval",
      "type": "event"
    },
    {
      "anonymous": false,
      "inputs": [
        {
          "indexed": true,
          "internalType": "address",
          "name": "owner",
          "type": "address"
        },
        {
          "indexed": true,
          "internalType": "address",
          "name": "operator",
          "type": "address"
        },
        {
          "indexed": false,
          "internalType": "bool",
          "name": "approved",
          "type": "bool"
        }
      ],
      "name": "ApprovalForAll",
      "type": "event"
    },
    {
      "anonymous": false,
      "inputs": [
        {
          "indexed": true,
          "internalType": "uint256",
          "name": "maskIndex",
          "type": "uint256"
        },
        {
          "indexed": false,
          "internalType": "string",
          "name": "newName",
          "type": "string"
        }
      ],
      "name": "NameChange",
      "type": "event"
    },
    {
      "anonymous": false,
      "inputs": [
        {
          "indexed": true,
          "internalType": "address",
          "name": "previousOwner",
          "type": "address"
        },
        {
          "indexed": true,
          "internalType": "address",
          "name": "newOwner",
          "type": "address"
        }
      ],
      "name": "OwnershipTransferred",
      "type": "event"
    },
    {
      "anonymous": false,
      "inputs": [
        {
          "indexed": true,
          "internalType": "address",
          "name": "from",
          "type": "address"
        },
        {
          "indexed": true,
          "internalType": "address",
          "name": "to",
          "type": "address"
        },
        {
          "indexed": true,
          "internalType": "uint256",
          "name": "tokenId",
          "type": "uint256"
        }
      ],
      "name": "Transfer",
      "type": "event"
    },
    {
      "inputs": [],
      "name": "MAX_NFT_SUPPLY",
      "outputs": [
        {
          "internalType": "uint256",
          "name": "",
          "type": "uint256"
        }
      ],
      "stateMutability": "view",
      "type": "function"
    },
    {
      "inputs": [],
      "name": "NAME_CHANGE_PRICE",
      "outputs": [
        {
          "internalType": "uint256",
          "name": "",
          "type": "uint256"
        }
      ],
      "stateMutability": "view",
      "type": "function"
    },
    {
      "inputs": [],
      "name": "REVEAL_TIMESTAMP",
      "outputs": [
        {
          "internalType": "uint256",
          "name": "",
          "type": "uint256"
        }
      ],
      "stateMutability": "view",
      "type": "function"
    },
    {
      "inputs": [],
      "name": "SALE_START_TIMESTAMP",
      "outputs": [
        {
          "internalType": "uint256",
          "name": "",
          "type": "uint256"
        }
      ],
      "stateMutability": "view",
      "type": "function"
    },
    {
      "inputs": [],
      "name": "canwestart",
      "outputs": [
        {
          "internalType": "bool",
          "name": "",
          "type": "bool"
        }
      ],
      "stateMutability": "view",
      "type": "function"
    },
    {
      "inputs": [],
      "name": "owner",
      "outputs": [
        {
          "internalType": "address",
          "name": "",
          "type": "address"
        }
      ],
      "stateMutability": "view",
      "type": "function"
    },
    {
      "inputs": [],
      "name": "paused",
      "outputs": [
        {
          "internalType": "bool",
          "name": "",
          "type": "bool"
        }
      ],
      "stateMutability": "view",
      "type": "function"
    },
    {
      "inputs": [],
      "name": "renounceOwnership",
      "outputs": [],
      "stateMutability": "nonpayable",
      "type": "function"
    },
    {
      "inputs": [],
      "name": "startingIndex",
      "outputs": [
        {
          "internalType": "uint256",
          "name": "",
          "type": "uint256"
        }
      ],
      "stateMutability": "view",
      "type": "function"
    },
    {
      "inputs": [],
      "name": "startingIndexBlock",
      "outputs": [
        {
          "internalType": "uint256",
          "name": "",
          "type": "uint256"
        }
      ],
      "stateMutability": "view",
      "type": "function"
    },
    {
      "inputs": [
        {
          "internalType": "bytes4",
          "name": "interfaceId",
          "type": "bytes4"
        }
      ],
      "name": "supportsInterface",
      "outputs": [
        {
          "internalType": "bool",
          "name": "",
          "type": "bool"
        }
      ],
      "stateMutability": "view",
      "type": "function"
    },
    {
      "inputs": [
        {
          "internalType": "address",
          "name": "newOwner",
          "type": "address"
        }
      ],
      "name": "transferOwnership",
      "outputs": [],
      "stateMutability": "nonpayable",
      "type": "function"
    },
    {
      "inputs": [
        {
          "internalType": "address",
          "name": "owner",
          "type": "address"
        }
      ],
      "name": "balanceOf",
      "outputs": [
        {
          "internalType": "uint256",
          "name": "",
          "type": "uint256"
        }
      ],
      "stateMutability": "view",
      "type": "function"
    },
    {
      "inputs": [
        {
          "internalType": "uint256",
          "name": "tokenId",
          "type": "uint256"
        }
      ],
      "name": "ownerOf",
      "outputs": [
        {
          "internalType": "address",
          "name": "",
          "type": "address"
        }
      ],
      "stateMutability": "view",
      "type": "function"
    },
    {
      "inputs": [],
      "name": "name",
      "outputs": [
        {
          "internalType": "string",
          "name": "",
          "type": "string"
        }
      ],
      "stateMutability": "view",
      "type": "function"
    },
    {
      "inputs": [],
      "name": "symbol",
      "outputs": [
        {
          "internalType": "string",
          "name": "",
          "type": "string"
        }
      ],
      "stateMutability": "view",
      "type": "function"
    },
    {
      "inputs": [
        {
          "internalType": "address",
          "name": "owner",
          "type": "address"
        },
        {
          "internalType": "uint256",
          "name": "index",
          "type": "uint256"
        }
      ],
      "name": "tokenOfOwnerByIndex",
      "outputs": [
        {
          "internalType": "uint256",
          "name": "",
          "type": "uint256"
        }
      ],
      "stateMutability": "view",
      "type": "function"
    },
    {
      "inputs": [],
      "name": "totalSupply",
      "outputs": [
        {
          "internalType": "uint256",
          "name": "",
          "type": "uint256"
        }
      ],
      "stateMutability": "view",
      "type": "function"
    },
    {
      "inputs": [
        {
          "internalType": "uint256",
          "name": "index",
          "type": "uint256"
        }
      ],
      "name": "tokenByIndex",
      "outputs": [
        {
          "internalType": "uint256",
          "name": "",
          "type": "uint256"
        }
      ],
      "stateMutability": "view",
      "type": "function"
    },
    {
      "inputs": [
        {
          "internalType": "uint256",
          "name": "index",
          "type": "uint256"
        }
      ],
      "name": "tokenNameByIndex",
      "outputs": [
        {
          "internalType": "string",
          "name": "",
          "type": "string"
        }
      ],
      "stateMutability": "view",
      "type": "function"
    },
    {
      "inputs": [
        {
          "internalType": "string",
          "name": "nameString",
          "type": "string"
        }
      ],
      "name": "isNameReserved",
      "outputs": [
        {
          "internalType": "bool",
          "name": "",
          "type": "bool"
        }
      ],
      "stateMutability": "view",
      "type": "function"
    },
    {
      "inputs": [
        {
          "internalType": "uint256",
          "name": "index",
          "type": "uint256"
        }
      ],
      "name": "isMintedBeforeReveal",
      "outputs": [
        {
          "internalType": "bool",
          "name": "",
          "type": "bool"
        }
      ],
      "stateMutability": "view",
      "type": "function"
    },
    {
      "inputs": [],
      "name": "getNFTPrice",
      "outputs": [
        {
          "internalType": "uint256",
          "name": "",
          "type": "uint256"
        }
      ],
      "stateMutability": "view",
      "type": "function"
    },
    {
      "inputs": [
        {
          "internalType": "bool",
          "name": "startvar",
          "type": "bool"
        }
      ],
      "name": "start",
      "outputs": [],
      "stateMutability": "nonpayable",
      "type": "function"
    },
    {
      "inputs": [],
      "name": "pause",
      "outputs": [],
      "stateMutability": "nonpayable",
      "type": "function"
    },
    {
      "inputs": [
        {
          "internalType": "uint256",
          "name": "numberOfNfts",
          "type": "uint256"
        }
      ],
      "name": "mintNFT",
      "outputs": [],
      "stateMutability": "payable",
      "type": "function"
    },
    {
      "inputs": [],
      "name": "finalizeStartingIndex",
      "outputs": [],
      "stateMutability": "nonpayable",
      "type": "function"
    },
    {
      "inputs": [
        {
          "internalType": "uint256",
          "name": "tokenId",
          "type": "uint256"
        },
        {
          "internalType": "string",
          "name": "newName",
          "type": "string"
        }
      ],
      "name": "changeName",
      "outputs": [],
      "stateMutability": "nonpayable",
      "type": "function"
    },
    {
      "inputs": [],
      "name": "withdraw",
      "outputs": [],
      "stateMutability": "nonpayable",
      "type": "function"
    },
    {
      "inputs": [
        {
          "internalType": "address",
          "name": "to",
          "type": "address"
        },
        {
          "internalType": "uint256",
          "name": "tokenId",
          "type": "uint256"
        }
      ],
      "name": "approve",
      "outputs": [],
      "stateMutability": "nonpayable",
      "type": "function"
    },
    {
      "inputs": [
        {
          "internalType": "uint256",
          "name": "tokenId",
          "type": "uint256"
        }
      ],
      "name": "getApproved",
      "outputs": [
        {
          "internalType": "address",
          "name": "",
          "type": "address"
        }
      ],
      "stateMutability": "view",
      "type": "function"
    },
    {
      "inputs": [
        {
          "internalType": "address",
          "name": "operator",
          "type": "address"
        },
        {
          "internalType": "bool",
          "name": "approved",
          "type": "bool"
        }
      ],
      "name": "setApprovalForAll",
      "outputs": [],
      "stateMutability": "nonpayable",
      "type": "function"
    },
    {
      "inputs": [
        {
          "internalType": "address",
          "name": "owner",
          "type": "address"
        },
        {
          "internalType": "address",
          "name": "operator",
          "type": "address"
        }
      ],
      "name": "isApprovedForAll",
      "outputs": [
        {
          "internalType": "bool",
          "name": "",
          "type": "bool"
        }
      ],
      "stateMutability": "view",
      "type": "function"
    },
    {
      "inputs": [
        {
          "internalType": "address",
          "name": "from",
          "type": "address"
        },
        {
          "internalType": "address",
          "name": "to",
          "type": "address"
        },
        {
          "internalType": "uint256",
          "name": "tokenId",
          "type": "uint256"
        }
      ],
      "name": "transferFrom",
      "outputs": [],
      "stateMutability": "nonpayable",
      "type": "function"
    },
    {
      "inputs": [
        {
          "internalType": "address",
          "name": "from",
          "type": "address"
        },
        {
          "internalType": "address",
          "name": "to",
          "type": "address"
        },
        {
          "internalType": "uint256",
          "name": "tokenId",
          "type": "uint256"
        },
        {
          "internalType": "bytes",
          "name": "_data",
          "type": "bytes"
        }
      ],
      "name": "safeTransferFrom",
      "outputs": [],
      "stateMutability": "nonpayable",
      "type": "function"
    },
    {
      "inputs": [
        {
          "internalType": "address",
          "name": "from",
          "type": "address"
        },
        {
          "internalType": "address",
          "name": "to",
          "type": "address"
        },
        {
          "internalType": "uint256",
          "name": "tokenId",
          "type": "uint256"
        }
      ],
      "name": "safeTransferFrom",
      "outputs": [],
      "stateMutability": "nonpayable",
      "type": "function"
    },
    {
      "inputs": [
        {
          "internalType": "string",
          "name": "str",
          "type": "string"
        }
      ],
      "name": "validateName",
      "outputs": [
        {
          "internalType": "bool",
          "name": "",
          "type": "bool"
        }
      ],
      "stateMutability": "pure",
      "type": "function"
    },
    {
      "inputs": [
        {
          "internalType": "string",
          "name": "str",
          "type": "string"
        }
      ],
      "name": "toLower",
      "outputs": [
        {
          "internalType": "string",
          "name": "",
          "type": "string"
        }
      ],
      "stateMutability": "pure",
      "type": "function"
    }
  ],
  "bytecode": "0x60806040523480156200001157600080fd5b5060405162003cc738038062003cc7833981810160405260608110156200003757600080fd5b81019080805160405193929190846401000000008211156200005857600080fd5b9083019060208201858111156200006e57600080fd5b82516401000000008111828201881017156200008957600080fd5b82525081516020918201929091019080838360005b83811015620000b85781810151838201526020016200009e565b50505050905090810190601f168015620000e65780820380516001836020036101000a031916815260200191505b50604052602001805160405193929190846401000000008211156200010a57600080fd5b9083019060208201858111156200012057600080fd5b82516401000000008111828201881017156200013b57600080fd5b82525081516020918201929091019080838360005b838110156200016a57818101518382015260200162000150565b50505050905090810190601f168015620001985780820380516001836020036101000a031916815260200191505b5060405260200151915060009050620001b062000292565b600080546001600160a01b0319166001600160a01b0383169081178255604051929350917f8be0079c531659141344cd1fd0a4f28419497f9722a3daafe3b4186f6b6457e0908290a3506200020c6301ffc9a760e01b62000296565b82516200022190600d9060208601906200031e565b5081516200023790600e9060208501906200031e565b50600f80546001600160a01b0319166001600160a01b038316179055620002656380ac58cd60e01b62000296565b62000277634992a2a160e11b62000296565b6200028963780e9d6360e01b62000296565b505050620003ba565b3390565b6001600160e01b03198082161415620002f6576040805162461bcd60e51b815260206004820152601c60248201527f4552433136353a20696e76616c696420696e7465726661636520696400000000604482015290519081900360640190fd5b6001600160e01b0319166000908152600160208190526040909120805460ff19169091179055565b828054600181600116156101000203166002900490600052602060002090601f016020900481019282601f106200036157805160ff191683800117855562000391565b8280016001018555821562000391579182015b828111156200039157825182559160200191906001019062000374565b506200039f929150620003a3565b5090565b5b808211156200039f5760008155600101620003a4565b6138fd80620003ca6000396000f3fe6080604052600436106102255760003560e01c806374df39c911610123578063b5077f44116100ab578063cb774d471161006f578063cb774d4714610a5a578063e36d649814610a6f578063e985e9c514610a84578063f2fde38b14610abf578063fb107a4f14610af257610225565b8063b5077f4414610866578063b88d4fde1461087b578063bc28d7021461094c578063c39cbef114610976578063c877cf3714610a2e57610225565b80639416b423116100f25780639416b4231461069f578063946807fd1461075057806395d89b41146107655780639ffdb65a1461077a578063a22cb4651461082b57610225565b806374df39c9146106435780638456cb59146106585780638da5cb5b1461066d578063926427441461068257610225565b80633ccfd60b116101b15780635c975abb116101755780635c975abb146105925780636352211e146105a75780636d522418146105d157806370a08231146105fb578063715018a61461062e57610225565b80633ccfd60b146104e657806342842e0e146104fb5780634f6ccce71461053e578063533440001461056857806354b6f1611461057d57610225565b806315b56d10116101f857806315b56d101461037d57806318160ddd1461042e57806318e20a381461045557806323b872dd1461046a5780632f745c59146104ad57610225565b806301ffc9a71461022a57806306fdde0314610272578063081812fc146102fc578063095ea7b314610342575b600080fd5b34801561023657600080fd5b5061025e6004803603602081101561024d57600080fd5b50356001600160e01b031916610b07565b604080519115158252519081900360200190f35b34801561027e57600080fd5b50610287610b2a565b6040805160208082528351818301528351919283929083019185019080838360005b838110156102c15781810151838201526020016102a9565b50505050905090810190601f1680156102ee5780820380516001836020036101000a031916815260200191505b509250505060405180910390f35b34801561030857600080fd5b506103266004803603602081101561031f57600080fd5b5035610c09565b604080516001600160a01b039092168252519081900360200190f35b34801561034e57600080fd5b5061037b6004803603604081101561036557600080fd5b506001600160a01b038135169060200135610cb7565b005b34801561038957600080fd5b5061025e600480360360208110156103a057600080fd5b810190602081018135600160201b8111156103ba57600080fd5b8201836020820111156103cc57600080fd5b803590602001918460018302840111600160201b831117156103ed57600080fd5b91908080601f016020809104026020016040519081016040528093929190818152602001838380828437600092019190915250929550610ddd945050505050565b34801561043a57600080fd5b50610443610e9c565b60408051918252519081900360200190f35b34801561046157600080fd5b50610443610ef9565b34801561047657600080fd5b5061037b6004803603606081101561048d57600080fd5b506001600160a01b03813581169160208101359091169060400135610f01565b3480156104b957600080fd5b50610443600480360360408110156104d057600080fd5b506001600160a01b038135169060200135610fa3565b3480156104f257600080fd5b5061037b61101c565b34801561050757600080fd5b5061037b6004803603606081101561051e57600080fd5b506001600160a01b038135811691602081013590911690604001356110a7565b34801561054a57600080fd5b506104436004803603602081101561056157600080fd5b503561110d565b34801561057457600080fd5b5061025e611170565b34801561058957600080fd5b50610443611179565b34801561059e57600080fd5b5061025e611186565b3480156105b357600080fd5b50610326600480360360208110156105ca57600080fd5b5035611194565b3480156105dd57600080fd5b50610287600480360360208110156105f457600080fd5b5035611208565b34801561060757600080fd5b506104436004803603602081101561061e57600080fd5b50356001600160a01b03166112f5565b34801561063a57600080fd5b5061037b6113a9565b34801561064f57600080fd5b5061037b61144b565b34801561066457600080fd5b5061037b611588565b34801561067957600080fd5b506103266115f1565b61037b6004803603602081101561069857600080fd5b5035611600565b3480156106ab57600080fd5b50610287600480360360208110156106c257600080fd5b810190602081018135600160201b8111156106dc57600080fd5b8201836020820111156106ee57600080fd5b803590602001918460018302840111600160201b8311171561070f57600080fd5b91908080601f0160208091040260200160405190810160405280939291908181526020018383808284376000920191909152509295506118c1945050505050565b34801561075c57600080fd5b506104436119e3565b34801561077157600080fd5b506102876119eb565b34801561078657600080fd5b5061025e6004803603602081101561079d57600080fd5b810190602081018135600160201b8111156107b757600080fd5b8201836020820111156107c957600080fd5b803590602001918460018302840111600160201b831117156107ea57600080fd5b91908080601f016020809104026020016040519081016040528093929190818152602001838380828437600092019190915250929550611a94945050505050565b34801561083757600080fd5b5061037b6004803603604081101561084e57600080fd5b506001600160a01b0381351690602001351515611c7f565b34801561087257600080fd5b50610443611dcf565b34801561088757600080fd5b5061037b6004803603608081101561089e57600080fd5b6001600160a01b03823581169260208101359091169160408201359190810190608081016060820135600160201b8111156108d857600080fd5b8201836020820111156108ea57600080fd5b803590602001918460018302840111600160201b8311171561090b57600080fd5b91908080601f016020809104026020016040519081016040528093929190818152602001838380828437600092019190915250929550611dd5945050505050565b34801561095857600080fd5b5061025e6004803603602081101561096f57600080fd5b5035611e7e565b34801561098257600080fd5b5061037b6004803603604081101561099957600080fd5b81359190810190604081016020820135600160201b8111156109ba57600080fd5b8201836020820111156109cc57600080fd5b803590602001918460018302840111600160201b831117156109ed57600080fd5b91908080601f016020809104026020016040519081016040528093929190818152602001838380828437600092019190915250929550611ee2945050505050565b348015610a3a57600080fd5b5061037b60048036036020811015610a5157600080fd5b50351515612463565b348015610a6657600080fd5b506104436124c1565b348015610a7b57600080fd5b506104436124c7565b348015610a9057600080fd5b5061025e60048036036040811015610aa757600080fd5b506001600160a01b03813581169160200135166124cd565b348015610acb57600080fd5b5061037b60048036036020811015610ae257600080fd5b50356001600160a01b031661254a565b348015610afe57600080fd5b50610443612642565b6001600160e01b0319811660009081526001602052604090205460ff165b919050565b600454606090610100900460ff1615610b78576040805162461bcd60e51b8152602060048201526012602482015260008051602061377b833981519152604482015290519081900360640190fd5b600d805460408051602060026001851615610100026000190190941693909304601f81018490048402820184019092528181529291830182828015610bfe5780601f10610bd357610100808354040283529160200191610bfe565b820191906000526020600020905b815481529060010190602001808311610be157829003601f168201915b505050505090505b90565b600454600090610100900460ff1615610c57576040805162461bcd60e51b8152602060048201526012602482015260008051602061377b833981519152604482015290519081900360640190fd5b610c60826127f4565b610c9b5760405162461bcd60e51b815260040180806020018281038252602c8152602001806137de602c913960400191505060405180910390fd5b506000908152600860205260409020546001600160a01b031690565b600454610100900460ff1615610d02576040805162461bcd60e51b8152602060048201526012602482015260008051602061377b833981519152604482015290519081900360640190fd5b6000610d0d82611194565b9050806001600160a01b0316836001600160a01b03161415610d605760405162461bcd60e51b81526004018080602001828103825260218152602001806138766021913960400191505060405180910390fd5b806001600160a01b0316610d72612801565b6001600160a01b03161480610d935750610d9381610d8e612801565b6124cd565b610dce5760405162461bcd60e51b81526004018080602001828103825260388152602001806136a46038913960400191505060405180910390fd5b610dd88383612805565b505050565b600454600090610100900460ff1615610e2b576040805162461bcd60e51b8152602060048201526012602482015260008051602061377b833981519152604482015290519081900360640190fd5b600a610e36836118c1565b6040518082805190602001908083835b60208310610e655780518252601f199092019160209182019101610e46565b51815160209384036101000a600019018019909216911617905292019485525060405193849003019092205460ff16949350505050565b600454600090610100900460ff1615610eea576040805162461bcd60e51b8152602060048201526012602482015260008051602061377b833981519152604482015290519081900360640190fd5b610ef46006612873565b905090565b636025467081565b600454610100900460ff1615610f4c576040805162461bcd60e51b8152602060048201526012602482015260008051602061377b833981519152604482015290519081900360640190fd5b610f5d610f57612801565b8261287e565b610f985760405162461bcd60e51b81526004018080602001828103825260318152602001806138976031913960400191505060405180910390fd5b610dd8838383612922565b600454600090610100900460ff1615610ff1576040805162461bcd60e51b8152602060048201526012602482015260008051602061377b833981519152604482015290519081900360640190fd5b6001600160a01b03831660009081526005602052604090206110139083612a6e565b90505b92915050565b611024612801565b6000546001600160a01b03908116911614611074576040805162461bcd60e51b8152602060048201819052602482015260008051602061380a833981519152604482015290519081900360640190fd5b6040514790339082156108fc029083906000818181858888f193505050501580156110a3573d6000803e3d6000fd5b5050565b600454610100900460ff16156110f2576040805162461bcd60e51b8152602060048201526012602482015260008051602061377b833981519152604482015290519081900360640190fd5b610dd883838360405180602001604052806000815250611dd5565b600454600090610100900460ff161561115b576040805162461bcd60e51b8152602060048201526012602482015260008051602061377b833981519152604482015290519081900360640190fd5b6000611168600684612a7a565b509392505050565b60045460ff1681565b6863345a083e94d8000081565b600454610100900460ff1681565b600454600090610100900460ff16156111e2576040805162461bcd60e51b8152602060048201526012602482015260008051602061377b833981519152604482015290519081900360640190fd5b611016826040518060600160405280602981526020016137526029913960069190612a96565b600454606090610100900460ff1615611256576040805162461bcd60e51b8152602060048201526012602482015260008051602061377b833981519152604482015290519081900360640190fd5b60008281526009602090815260409182902080548351601f6002600019610100600186161502019093169290920491820184900484028101840190945280845290918301828280156112e95780601f106112be576101008083540402835291602001916112e9565b820191906000526020600020905b8154815290600101906020018083116112cc57829003601f168201915b50505050509050919050565b600454600090610100900460ff1615611343576040805162461bcd60e51b8152602060048201526012602482015260008051602061377b833981519152604482015290519081900360640190fd5b6001600160a01b0382166113885760405162461bcd60e51b815260040180806020018281038252602a815260200180613728602a913960400191505060405180910390fd5b6001600160a01b038216600090815260056020526040902061101690612873565b6113b1612801565b6000546001600160a01b03908116911614611401576040805162461bcd60e51b8152602060048201819052602482015260008051602061380a833981519152604482015290519081900360640190fd5b600080546040516001600160a01b03909116907f8be0079c531659141344cd1fd0a4f28419497f9722a3daafe3b4186f6b6457e0908390a3600080546001600160a01b0319169055565b600454610100900460ff1615611496576040805162461bcd60e51b8152602060048201526012602482015260008051602061377b833981519152604482015290519081900360640190fd5b600354156114eb576040805162461bcd60e51b815260206004820152601d60248201527f5374617274696e6720696e64657820697320616c726561647920736574000000604482015290519081900360640190fd5b60025461153f576040805162461bcd60e51b815260206004820181905260248201527f5374617274696e6720696e64657820626c6f636b206d75737420626520736574604482015290519081900360640190fd5b600254613fff81401660035560ff90611559904390612aad565b111561156d57614000600019430140066003555b60035461158657600354611582906001612aef565b6003555b565b611590612801565b6000546001600160a01b039081169116146115e0576040805162461bcd60e51b8152602060048201819052602482015260008051602061380a833981519152604482015290519081900360640190fd5b6004805461ff001916610100179055565b6000546001600160a01b031690565b600454610100900460ff161561164b576040805162461bcd60e51b8152602060048201526012602482015260008051602061377b833981519152604482015290519081900360640190fd5b60045460ff1661168c5760405162461bcd60e51b81526004018080602001828103825260238152602001806136dc6023913960400191505060405180910390fd5b614000611697610e9c565b106116e2576040805162461bcd60e51b815260206004820152601660248201527514d85b19481a185cc8185b1c9958591e48195b99195960521b604482015290519081900360640190fd5b60008111611737576040805162461bcd60e51b815260206004820152601860248201527f6e756d6265724f664e6674732063616e6e6f7420626520300000000000000000604482015290519081900360640190fd5b60148111156117775760405162461bcd60e51b81526004018080602001828103825260298152602001806136ff6029913960400191505060405180910390fd5b61400061178c82611786610e9c565b90612aef565b11156117d8576040805162461bcd60e51b815260206004820152601660248201527545786365656473204d41585f4e46545f535550504c5960501b604482015290519081900360640190fd5b346117eb826117e5612642565b90612b49565b1461183d576040805162461bcd60e51b815260206004820152601f60248201527f45746865722076616c75652073656e74206973206e6f7420636f727265637400604482015290519081900360640190fd5b60005b8181101561188d576000611852610e9c565b9050636025467042101561187a576000818152600b60205260409020805460ff191660011790555b6118843382612ba2565b50600101611840565b506002541580156118b457506140006118a4610e9c565b14806118b4575063602546704210155b156118be57436002555b50565b6060808290506060815167ffffffffffffffff811180156118e157600080fd5b506040519080825280601f01601f19166020018201604052801561190c576020820181803683370190505b50905060005b825181101561116857604183828151811061192957fe5b016020015160f81c108015906119535750605a83828151811061194857fe5b016020015160f81c11155b156119a05782818151811061196457fe5b602001015160f81c60f81b60f81c60200160f81b82828151811061198457fe5b60200101906001600160f81b031916908160001a9053506119db565b8281815181106119ac57fe5b602001015160f81c60f81b8282815181106119c357fe5b60200101906001600160f81b031916908160001a9053505b600101611912565b636012d17081565b600454606090610100900460ff1615611a39576040805162461bcd60e51b8152602060048201526012602482015260008051602061377b833981519152604482015290519081900360640190fd5b600e805460408051602060026001851615610100026000190190941693909304601f81018490048402820184019092528181529291830182828015610bfe5780601f10610bd357610100808354040283529160200191610bfe565b60006060829050600181511015611aaf576000915050610b25565b601981511115611ac3576000915050610b25565b80600081518110611ad057fe5b6020910101516001600160f81b031916600160fd1b1415611af5576000915050610b25565b80600182510381518110611b0557fe5b6020910101516001600160f81b031916600160fd1b1415611b2a576000915050610b25565b600081600081518110611b3957fe5b01602001516001600160f81b031916905060005b8251811015611c74576000838281518110611b6457fe5b01602001516001600160f81b0319169050600160fd1b81148015611b955750600160fd1b6001600160f81b03198416145b15611ba7576000945050505050610b25565b600360fc1b6001600160f81b0319821610801590611bd35750603960f81b6001600160f81b0319821611155b158015611c095750604160f81b6001600160f81b0319821610801590611c075750602d60f91b6001600160f81b0319821611155b155b8015611c3e5750606160f81b6001600160f81b0319821610801590611c3c5750603d60f91b6001600160f81b0319821611155b155b8015611c585750600160fd1b6001600160f81b0319821614155b15611c6a576000945050505050610b25565b9150600101611b4d565b506001949350505050565b600454610100900460ff1615611cca576040805162461bcd60e51b8152602060048201526012602482015260008051602061377b833981519152604482015290519081900360640190fd5b611cd2612801565b6001600160a01b0316826001600160a01b03161415611d38576040805162461bcd60e51b815260206004820152601960248201527f4552433732313a20617070726f766520746f2063616c6c657200000000000000604482015290519081900360640190fd5b80600c6000611d45612801565b6001600160a01b03908116825260208083019390935260409182016000908120918716808252919093529120805460ff191692151592909217909155611d89612801565b6001600160a01b03167f17307eab39ab6107e8899845ad3d59bd9653f200f220920489ca2b5937696c318360405180821515815260200191505060405180910390a35050565b61400081565b600454610100900460ff1615611e20576040805162461bcd60e51b8152602060048201526012602482015260008051602061377b833981519152604482015290519081900360640190fd5b611e31611e2b612801565b8361287e565b611e6c5760405162461bcd60e51b81526004018080602001828103825260318152602001806138976031913960400191505060405180910390fd5b611e7884848484612bbc565b50505050565b600454600090610100900460ff1615611ecc576040805162461bcd60e51b8152602060048201526012602482015260008051602061377b833981519152604482015290519081900360640190fd5b506000908152600b602052604090205460ff1690565b6000611eed83611194565b600454909150610100900460ff1615611f3b576040805162461bcd60e51b8152602060048201526012602482015260008051602061377b833981519152604482015290519081900360640190fd5b806001600160a01b0316611f4d612801565b6001600160a01b031614611fa8576040805162461bcd60e51b815260206004820152601f60248201527f4552433732313a2063616c6c6572206973206e6f7420746865206f776e657200604482015290519081900360640190fd5b611fb182611a94565b1515600114611ffe576040805162461bcd60e51b81526020600482015260146024820152734e6f7420612076616c6964206e6577206e616d6560601b604482015290519081900360640190fd5b600260096000858152602001908152602001600020604051808280546001816001161561010002031660029004801561206e5780601f1061204c57610100808354040283529182019161206e565b820191906000526020600020905b81548152906001019060200180831161205a575b5050915050602060405180830381855afa158015612090573d6000803e3d6000fd5b5050506040513d60208110156120a557600080fd5b505160405183516002918591819060208401908083835b602083106120db5780518252601f1990920191602091820191016120bc565b51815160209384036101000a60001901801990921691161790526040519190930194509192505080830381855afa15801561211a573d6000803e3d6000fd5b5050506040513d602081101561212f57600080fd5b5051141561216e5760405162461bcd60e51b81526004018080602001828103825260238152602001806138536023913960400191505060405180910390fd5b61217782610ddd565b156121c1576040805162461bcd60e51b815260206004820152601560248201527413985b5948185b1c9958591e481c995cd95c9d9959605a1b604482015290519081900360640190fd5b600f54604080516323b872dd60e01b81523360048201523060248201526863345a083e94d80000604482015290516001600160a01b03909216916323b872dd916064808201926020929091908290030181600087803b15801561222357600080fd5b505af1158015612237573d6000803e3d6000fd5b505050506040513d602081101561224d57600080fd5b505060008381526009602052604090205460026000196101006001841615020190911604156123185760008381526009602090815260409182902080548351601f60026000196101006001861615020190931692909204918201849004840281018401909452808452612318939283018282801561230c5780601f106122e15761010080835404028352916020019161230c565b820191906000526020600020905b8154815290600101906020018083116122ef57829003601f168201915b50505050506000612c59565b612323826001612c59565b600083815260096020908152604090912083516123429285019061354f565b50600f5460408051630852cd8d60e31b81526863345a083e94d80000600482015290516001600160a01b03909216916342966c68916024808201926020929091908290030181600087803b15801561239957600080fd5b505af11580156123ad573d6000803e3d6000fd5b505050506040513d60208110156123c357600080fd5b5050604080516020808252845182820152845186937f7e632a301794d8d4a81ea7e20f37d1947158d36e66403af04ba85dd194b66f1b9387939092839283019185019080838360005b8381101561242457818101518382015260200161240c565b50505050905090810190601f1680156124515780820380516001836020036101000a031916815260200191505b509250505060405180910390a2505050565b600454610100900460ff16156124ae576040805162461bcd60e51b8152602060048201526012602482015260008051602061377b833981519152604482015290519081900360640190fd5b6004805460ff1916911515919091179055565b60035481565b60025481565b600454600090610100900460ff161561251b576040805162461bcd60e51b8152602060048201526012602482015260008051602061377b833981519152604482015290519081900360640190fd5b506001600160a01b039182166000908152600c6020908152604080832093909416825291909152205460ff1690565b612552612801565b6000546001600160a01b039081169116146125a2576040805162461bcd60e51b8152602060048201819052602482015260008051602061380a833981519152604482015290519081900360640190fd5b6001600160a01b0381166125e75760405162461bcd60e51b815260040180806020018281038252602681526020018061362e6026913960400191505060405180910390fd5b600080546040516001600160a01b03808516939216917f8be0079c531659141344cd1fd0a4f28419497f9722a3daafe3b4186f6b6457e091a3600080546001600160a01b0319166001600160a01b0392909216919091179055565b600454600090610100900460ff1615612690576040805162461bcd60e51b8152602060048201526012602482015260008051602061377b833981519152604482015290519081900360640190fd5b636012d1704210156126e0576040805162461bcd60e51b815260206004820152601460248201527314d85b19481a185cc81b9bdd081cdd185c9d195960621b604482015290519081900360640190fd5b6140006126eb610e9c565b10612736576040805162461bcd60e51b815260206004820152601660248201527514d85b19481a185cc8185b1c9958591e48195b99195960521b604482015290519081900360640190fd5b6000612740610e9c565b9050613ffd811061275d5768056bc75e2d63100000915050610c06565b613e808110612777576729a2241af62c0000915050610c06565b613a988110612791576717979cfe362a0000915050610c06565b612af881106127ab57670c7d713b49da0000915050610c06565b611b5881106127c5576706f05b59d3b20000915050610c06565b610bb881106127df57670429d069189e0000915050610c06565b67016345785d8a0000915050610c06565b5090565b6000611016600683612cd5565b3390565b600081815260086020526040902080546001600160a01b0319166001600160a01b038416908117909155819061283a82611194565b6001600160a01b03167f8c5be1e5ebec7d5bd14f71427d1e84f3dd0314c0f7b2291e5b200ac8c7c3b92560405160405180910390a45050565b600061101682612ce1565b6000612889826127f4565b6128c45760405162461bcd60e51b815260040180806020018281038252602c815260200180613678602c913960400191505060405180910390fd5b60006128cf83611194565b9050806001600160a01b0316846001600160a01b0316148061290a5750836001600160a01b03166128ff84610c09565b6001600160a01b0316145b8061291a575061291a81856124cd565b949350505050565b826001600160a01b031661293582611194565b6001600160a01b03161461297a5760405162461bcd60e51b815260040180806020018281038252602981526020018061382a6029913960400191505060405180910390fd5b6001600160a01b0382166129bf5760405162461bcd60e51b81526004018080602001828103825260248152602001806136546024913960400191505060405180910390fd5b6129ca838383610dd8565b6129d5600082612805565b6001600160a01b03831660009081526005602052604090206129f79082612ce5565b506001600160a01b0382166000908152600560205260409020612a1a9082612cf1565b50612a2760068284612cfd565b5080826001600160a01b0316846001600160a01b03167fddf252ad1be2c89b69c2b068fc378daa952ba7f163c4a11628f55a4df523b3ef60405160405180910390a4505050565b60006110138383612d13565b6000808080612a898686612d77565b9097909650945050505050565b6000612aa3848484612df2565b90505b9392505050565b600061101383836040518060400160405280601e81526020017f536166654d6174683a207375627472616374696f6e206f766572666c6f770000815250612ebc565b600082820183811015611013576040805162461bcd60e51b815260206004820152601b60248201527f536166654d6174683a206164646974696f6e206f766572666c6f770000000000604482015290519081900360640190fd5b600082612b5857506000611016565b82820282848281612b6557fe5b04146110135760405162461bcd60e51b81526004018080602001828103825260218152602001806137bd6021913960400191505060405180910390fd5b6110a3828260405180602001604052806000815250612f16565b600454610100900460ff1615612c07576040805162461bcd60e51b8152602060048201526012602482015260008051602061377b833981519152604482015290519081900360640190fd5b612c12848484612922565b612c1e84848484612f68565b611e785760405162461bcd60e51b81526004018080602001828103825260328152602001806135fc6032913960400191505060405180910390fd5b80600a612c65846118c1565b6040518082805190602001908083835b60208310612c945780518252601f199092019160209182019101612c75565b51815160209384036101000a60001901801990921691161790529201948552506040519384900301909220805460ff19169315159390931790925550505050565b600061101383836130d0565b5490565b600061101383836130e8565b600061101383836131ae565b6000612aa384846001600160a01b0385166131f8565b81546000908210612d555760405162461bcd60e51b81526004018080602001828103825260228152602001806135da6022913960400191505060405180910390fd5b826000018281548110612d6457fe5b9060005260206000200154905092915050565b815460009081908310612dbb5760405162461bcd60e51b815260040180806020018281038252602281526020018061379b6022913960400191505060405180910390fd5b6000846000018481548110612dcc57fe5b906000526020600020906002020190508060000154816001015492509250509250929050565b60008281526001840160205260408120548281612e8d5760405162461bcd60e51b81526004018080602001828103825283818151815260200191508051906020019080838360005b83811015612e52578181015183820152602001612e3a565b50505050905090810190601f168015612e7f5780820380516001836020036101000a031916815260200191505b509250505060405180910390fd5b50846000016001820381548110612ea057fe5b9060005260206000209060020201600101549150509392505050565b60008184841115612f0e5760405162461bcd60e51b8152602060048201818152835160248401528351909283926044909101919085019080838360008315612e52578181015183820152602001612e3a565b505050900390565b612f20838361328f565b612f2d6000848484612f68565b610dd85760405162461bcd60e51b81526004018080602001828103825260328152602001806135fc6032913960400191505060405180910390fd5b6000612f7c846001600160a01b03166133bd565b612f885750600161291a565b6060613096630a85bd0160e11b612f9d612801565b88878760405160240180856001600160a01b03168152602001846001600160a01b0316815260200183815260200180602001828103825283818151815260200191508051906020019080838360005b83811015613004578181015183820152602001612fec565b50505050905090810190601f1680156130315780820380516001836020036101000a031916815260200191505b5095505050505050604051602081830303815290604052906001600160e01b0319166020820180516001600160e01b0383818316178352505050506040518060600160405280603281526020016135fc603291396001600160a01b03881691906133c3565b905060008180602001905160208110156130af57600080fd5b50516001600160e01b031916630a85bd0160e11b1492505050949350505050565b60009081526001919091016020526040902054151590565b600081815260018301602052604081205480156131a4578354600019808301919081019060009087908390811061311b57fe5b906000526020600020015490508087600001848154811061313857fe5b60009182526020808320909101929092558281526001898101909252604090209084019055865487908061316857fe5b60019003818190600052602060002001600090559055866001016000878152602001908152602001600020600090556001945050505050611016565b6000915050611016565b60006131ba83836130d0565b6131f057508154600181810184556000848152602080822090930184905584548482528286019093526040902091909155611016565b506000611016565b60008281526001840160205260408120548061325d575050604080518082018252838152602080820184815286546001818101895560008981528481209551600290930290950191825591519082015586548684528188019092529290912055612aa6565b8285600001600183038154811061327057fe5b9060005260206000209060020201600101819055506000915050612aa6565b6001600160a01b0382166132ea576040805162461bcd60e51b815260206004820181905260248201527f4552433732313a206d696e7420746f20746865207a65726f2061646472657373604482015290519081900360640190fd5b6132f3816127f4565b15613345576040805162461bcd60e51b815260206004820152601c60248201527f4552433732313a20746f6b656e20616c7265616479206d696e74656400000000604482015290519081900360640190fd5b61335160008383610dd8565b6001600160a01b03821660009081526005602052604090206133739082612cf1565b5061338060068284612cfd565b5060405181906001600160a01b038416906000907fddf252ad1be2c89b69c2b068fc378daa952ba7f163c4a11628f55a4df523b3ef908290a45050565b3b151590565b6060612aa38484600085856133d7856133bd565b613428576040805162461bcd60e51b815260206004820152601d60248201527f416464726573733a2063616c6c20746f206e6f6e2d636f6e7472616374000000604482015290519081900360640190fd5b60006060866001600160a01b031685876040518082805190602001908083835b602083106134675780518252601f199092019160209182019101613448565b6001836020036101000a03801982511681845116808217855250505050505090500191505060006040518083038185875af1925050503d80600081146134c9576040519150601f19603f3d011682016040523d82523d6000602084013e6134ce565b606091505b50915091506134de8282866134e9565b979650505050505050565b606083156134f8575081612aa6565b8251156135085782518084602001fd5b60405162461bcd60e51b8152602060048201818152845160248401528451859391928392604401919085019080838360008315612e52578181015183820152602001612e3a565b828054600181600116156101000203166002900490600052602060002090601f016020900481019282601f1061359057805160ff19168380011785556135bd565b828001600101855582156135bd579182015b828111156135bd5782518255916020019190600101906135a2565b506127f09291505b808211156127f057600081556001016135c556fe456e756d657261626c655365743a20696e646578206f7574206f6620626f756e64734552433732313a207472616e7366657220746f206e6f6e20455243373231526563656976657220696d706c656d656e7465724f776e61626c653a206e6577206f776e657220697320746865207a65726f20616464726573734552433732313a207472616e7366657220746f20746865207a65726f20616464726573734552433732313a206f70657261746f7220717565727920666f72206e6f6e6578697374656e7420746f6b656e4552433732313a20617070726f76652063616c6c6572206973206e6f74206f776e6572206e6f7220617070726f76656420666f7220616c6c53746172742066756e6374696f6e206d7573742062652063616c6c6564206669727374596f75206d6179206e6f7420627579206d6f7265207468616e203230204e465473206174206f6e63654552433732313a2062616c616e636520717565727920666f7220746865207a65726f20616464726573734552433732313a206f776e657220717565727920666f72206e6f6e6578697374656e7420746f6b656e436f6e7472616374206973207061757365640000000000000000000000000000456e756d657261626c654d61703a20696e646578206f7574206f6620626f756e6473536166654d6174683a206d756c7469706c69636174696f6e206f766572666c6f774552433732313a20617070726f76656420717565727920666f72206e6f6e6578697374656e7420746f6b656e4f776e61626c653a2063616c6c6572206973206e6f7420746865206f776e65724552433732313a207472616e73666572206f6620746f6b656e2074686174206973206e6f74206f776e4e6577206e616d652069732073616d65206173207468652063757272656e74206f6e654552433732313a20617070726f76616c20746f2063757272656e74206f776e65724552433732313a207472616e736665722063616c6c6572206973206e6f74206f776e6572206e6f7220617070726f766564a2646970667358221220e90af91d68401c2733502858868bf354a5a3b222eac3e544640715554b3ed3f664736f6c63430007000033",
  "immutableReferences": {},
  "source": "pragma solidity ^0.7.0;\n\nimport \"./ERC165/IERC165.sol\";\nimport \"./ERC165/ERC165.sol\";\nimport \"./utils/Address.sol\";\nimport \"./utils/EnumerableMap.sol\";\nimport \"./utils/EnumerableSet.sol\";\nimport \"./utils/SafeMath.sol\";\nimport \"./utils/Strings.sol\";\nimport \"./utils/Context.sol\";\nimport \"./utils/Ownable.sol\";\nimport \"./IERC20.sol\";\nimport \"./IMasks.sol\";\nimport \"./IERC721Enumerable.sol\";\n\n/**\n * @title ERC-721 Non-Fungible Token Standard, optional metadata extension\n * @dev See https://eips.ethereum.org/EIPS/eip-721\n */\ninterface IERC721Metadata is IERC721 {\n\n    /**\n     * @dev Returns the token collection name.\n     */\n    function name() external view returns (string memory);\n\n    /**\n     * @dev Returns the token collection symbol.\n     */\n    function symbol() external view returns (string memory);\n}\n\n/**\n * @title ERC721 token receiver interface\n * @dev Interface for any contract that wants to support safeTransfers\n * from ERC721 asset contracts.\n */\ninterface IERC721Receiver {\n    /**\n     * @dev Whenever an {IERC721} `tokenId` token is transferred to this contract via {IERC721-safeTransferFrom}\n     * by `operator` from `from`, this function is called.\n     *\n     * It must return its Solidity selector to confirm the token transfer.\n     * If any other value is returned or the interface is not implemented by the recipient, the transfer will be reverted.\n     *\n     * The selector can be obtained in Solidity with `IERC721.onERC721Received.selector`.\n     */\n    function onERC721Received(address operator, address from, uint256 tokenId, bytes calldata data) external returns (bytes4);\n}\n\n/**\n * @title Hashmasks contract\n * @dev Extends ERC721 Non-Fungible Token Standard basic implementation\n */\ncontract Masks is Context, Ownable, ERC165, IMasks, IERC721Metadata {\n    using SafeMath for uint256;\n    using Address for address;\n    using EnumerableSet for EnumerableSet.UintSet;\n    using EnumerableMap for EnumerableMap.UintToAddressMap;\n    using Strings for uint256;\n\n    // Public variables\n\n    // This is the provenance record of all Hashmasks artwork in existence\n    //Need new hash for a new set of hashmasks.\n    //string public constant HASHMASKS_PROVENANCE = \"df760c771ad006eace0d705383b74158967e78c6e980b35f670249b5822c42e1\";\n\n    uint256 public constant SALE_START_TIMESTAMP = 1611846000;\n\n    // Time after which hash masks are randomized and allotted\n    uint256 public constant REVEAL_TIMESTAMP = SALE_START_TIMESTAMP + (86400 * 14);\n\n    uint256 public constant NAME_CHANGE_PRICE = 1830 * (10 ** 18);\n\n    uint256 public constant MAX_NFT_SUPPLY = 16384;\n\n    uint256 public startingIndexBlock;\n\n    uint256 public startingIndex;\n\n    bool public canwestart;\n    bool public paused;\n\n    // Equals to `bytes4(keccak256(\"onERC721Received(address,address,uint256,bytes)\"))`\n    // which can be also obtained as `IERC721Receiver(0).onERC721Received.selector`\n    bytes4 private constant _ERC721_RECEIVED = 0x150b7a02;\n\n    // Mapping from holder address to their (enumerable) set of owned tokens\n    mapping (address => EnumerableSet.UintSet) private _holderTokens;\n\n    // Enumerable mapping from token ids to their owners\n    EnumerableMap.UintToAddressMap private _tokenOwners;\n\n    // Mapping from token ID to approved address\n    mapping (uint256 => address) private _tokenApprovals;\n\n    // Mapping from token ID to name\n    mapping (uint256 => string) private _tokenName;\n\n    // Mapping if certain name string has already been reserved\n    mapping (string => bool) private _nameReserved;\n\n    // Mapping from token ID to whether the Hashmask was minted before reveal\n    mapping (uint256 => bool) private _mintedBeforeReveal;\n\n    // Mapping from owner to operator approvals\n    mapping (address => mapping (address => bool)) private _operatorApprovals;\n\n    // Token name\n    string private _name;\n\n    // Token symbol\n    string private _symbol;\n\n    // Name change token address\n    address private _nctAddress;\n\n    /*\n     *     bytes4(keccak256('balanceOf(address)')) == 0x70a08231\n     *     bytes4(keccak256('ownerOf(uint256)')) == 0x6352211e\n     *     bytes4(keccak256('approve(address,uint256)')) == 0x095ea7b3\n     *     bytes4(keccak256('getApproved(uint256)')) == 0x081812fc\n     *     bytes4(keccak256('setApprovalForAll(address,bool)')) == 0xa22cb465\n     *     bytes4(keccak256('isApprovedForAll(address,address)')) == 0xe985e9c5\n     *     bytes4(keccak256('transferFrom(address,address,uint256)')) == 0x23b872dd\n     *     bytes4(keccak256('safeTransferFrom(address,address,uint256)')) == 0x42842e0e\n     *     bytes4(keccak256('safeTransferFrom(address,address,uint256,bytes)')) == 0xb88d4fde\n     *\n     *     => 0x70a08231 ^ 0x6352211e ^ 0x095ea7b3 ^ 0x081812fc ^\n     *        0xa22cb465 ^ 0xe985e9c5 ^ 0x23b872dd ^ 0x42842e0e ^ 0xb88d4fde == 0x80ac58cd\n     */\n    bytes4 private constant _INTERFACE_ID_ERC721 = 0x80ac58cd;\n\n    /*\n     *     bytes4(keccak256('name()')) == 0x06fdde03\n     *     bytes4(keccak256('symbol()')) == 0x95d89b41\n     *\n     *     => 0x06fdde03 ^ 0x95d89b41 == 0x93254542\n     */\n    bytes4 private constant _INTERFACE_ID_ERC721_METADATA = 0x93254542;\n\n    /*\n     *     bytes4(keccak256('totalSupply()')) == 0x18160ddd\n     *     bytes4(keccak256('tokenOfOwnerByIndex(address,uint256)')) == 0x2f745c59\n     *     bytes4(keccak256('tokenByIndex(uint256)')) == 0x4f6ccce7\n     *\n     *     => 0x18160ddd ^ 0x2f745c59 ^ 0x4f6ccce7 == 0x780e9d63\n     */\n    bytes4 private constant _INTERFACE_ID_ERC721_ENUMERABLE = 0x780e9d63;\n\n    // Events\n    event NameChange (uint256 indexed maskIndex, string newName);\n\n    /**\n     * @dev Initializes the contract by setting a `name` and a `symbol` to the token collection.\n     */\n    constructor (string memory name, string memory symbol, address nctAddress) {\n        _name = name;\n        _symbol = symbol;\n        _nctAddress = nctAddress;\n\n        // register the supported interfaces to conform to ERC721 via ERC165\n        _registerInterface(_INTERFACE_ID_ERC721);\n        _registerInterface(_INTERFACE_ID_ERC721_METADATA);\n        _registerInterface(_INTERFACE_ID_ERC721_ENUMERABLE);\n    }\n\n    /**\n     * @dev See {IERC721-balanceOf}.\n     */\n    function balanceOf(address owner) public view override returns (uint256) {\n        require(!paused, \"Contract is paused\");\n        require(owner != address(0), \"ERC721: balance query for the zero address\");\n\n        return _holderTokens[owner].length();\n    }\n\n    /**\n     * @dev See {IERC721-ownerOf}.\n     */\n    function ownerOf(uint256 tokenId) public view override returns (address) {\n        require(!paused, \"Contract is paused\");\n        return _tokenOwners.get(tokenId, \"ERC721: owner query for nonexistent token\");\n    }\n\n    /**\n     * @dev See {IERC721Metadata-name}.\n     */\n    function name() public view override returns (string memory) {\n        require(!paused, \"Contract is paused\");\n        return _name;\n    }\n\n    /**\n     * @dev See {IERC721Metadata-symbol}.\n     */\n    function symbol() public view override returns (string memory) {\n        require(!paused, \"Contract is paused\");\n        return _symbol;\n    }\n\n    /**\n     * @dev See {IERC721Enumerable-tokenOfOwnerByIndex}.\n     */\n    function tokenOfOwnerByIndex(address owner, uint256 index) public view override returns (uint256) {\n        require(!paused, \"Contract is paused\");\n        return _holderTokens[owner].at(index);\n    }\n\n    /**\n     * @dev See {IERC721Enumerable-totalSupply}.\n     */\n    function totalSupply() public view override returns (uint256) {\n        require(!paused, \"Contract is paused\");\n        // _tokenOwners are indexed by tokenIds, so .length() returns the number of tokenIds\n        return _tokenOwners.length();\n    }\n\n    /**\n     * @dev See {IERC721Enumerable-tokenByIndex}.\n     */\n    function tokenByIndex(uint256 index) public view override returns (uint256) {\n        require(!paused, \"Contract is paused\");\n        (uint256 tokenId, ) = _tokenOwners.at(index);\n        return tokenId;\n    }\n\n    /**\n     * @dev Returns name of the NFT at index.\n     */\n    function tokenNameByIndex(uint256 index) public view returns (string memory) {\n        require(!paused, \"Contract is paused\");\n        return _tokenName[index];\n    }\n\n    /**\n     * @dev Returns if the name has been reserved.\n     */\n    function isNameReserved(string memory nameString) public view returns (bool) {\n        require(!paused, \"Contract is paused\");\n        return _nameReserved[toLower(nameString)];\n    }\n\n    /**\n     * @dev Returns if the NFT has been minted before reveal phase\n     */\n    function isMintedBeforeReveal(uint256 index) public view override returns (bool) {\n        require(!paused, \"Contract is paused\");\n        return _mintedBeforeReveal[index];\n    }\n\n    /**\n     * @dev Gets current Hashmask Price\n     */\n    function getNFTPrice() public view returns (uint256) {\n        require(!paused, \"Contract is paused\");\n        require(block.timestamp >= SALE_START_TIMESTAMP, \"Sale has not started\");\n        require(totalSupply() < MAX_NFT_SUPPLY, \"Sale has already ended\");\n\n        uint currentSupply = totalSupply();\n\n        if (currentSupply >= 16381) {\n            return 100000000000000000000; // 16381 - 16383 100 ETH\n        } else if (currentSupply >= 16000) {\n            return 3000000000000000000; // 16000 - 16380 3.0 ETH\n        } else if (currentSupply >= 15000) {\n            return 1700000000000000000; // 15000  - 15999 1.7 ETH\n        } else if (currentSupply >= 11000) {\n            return 900000000000000000; // 11000 - 14999 0.9 ETH\n        } else if (currentSupply >= 7000) {\n            return 500000000000000000; // 7000 - 10999 0.5 ETH\n        } else if (currentSupply >= 3000) {\n            return 300000000000000000; // 3000 - 6999 0.3 ETH\n        } else {\n            return 100000000000000000; // 0 - 2999 0.1 ETH \n        }\n    }\n\n    function start(bool startvar) public{\n        require(!paused, \"Contract is paused\");\n        canwestart = startvar;\n    }\n\n    function pause() onlyOwner public{\n        paused = true;\n    }\n\n    /**\n    * @dev Mints Masks\n    */\n    function mintNFT(uint256 numberOfNfts) public payable {\n        require(!paused, \"Contract is paused\");\n        require(canwestart, \"Start function must be called first\");\n        require(totalSupply() < MAX_NFT_SUPPLY, \"Sale has already ended\");\n        require(numberOfNfts > 0, \"numberOfNfts cannot be 0\");\n        require(numberOfNfts <= 20, \"You may not buy more than 20 NFTs at once\");\n        require(totalSupply().add(numberOfNfts) <= MAX_NFT_SUPPLY, \"Exceeds MAX_NFT_SUPPLY\");\n        require(getNFTPrice().mul(numberOfNfts) == msg.value, \"Ether value sent is not correct\");\n\n        for (uint i = 0; i < numberOfNfts; i++) {\n            uint mintIndex = totalSupply();\n            if (block.timestamp < REVEAL_TIMESTAMP) {\n                _mintedBeforeReveal[mintIndex] = true;\n            }\n            _safeMint(msg.sender, mintIndex);\n        }\n\n        /**\n        * Source of randomness. Theoretical miner withhold manipulation possible but should be sufficient in a pragmatic sense\n        */\n        if (startingIndexBlock == 0 && (totalSupply() == MAX_NFT_SUPPLY || block.timestamp >= REVEAL_TIMESTAMP)) {\n            startingIndexBlock = block.number;\n        }\n    }\n\n    /**\n     * @dev Finalize starting index\n     */\n    function finalizeStartingIndex() public {\n        require(!paused, \"Contract is paused\");\n        require(startingIndex == 0, \"Starting index is already set\");\n        require(startingIndexBlock != 0, \"Starting index block must be set\");\n        \n        startingIndex = uint(blockhash(startingIndexBlock)) % MAX_NFT_SUPPLY;\n        // Just a sanity case in the worst case if this function is called late (EVM only stores last 256 block hashes)\n        if (block.number.sub(startingIndexBlock) > 255) {\n            startingIndex = uint(blockhash(block.number-1)) % MAX_NFT_SUPPLY;\n        }\n        // Prevent default sequence\n        if (startingIndex == 0) {\n            startingIndex = startingIndex.add(1);\n        }\n    }\n\n    /**\n     * @dev Changes the name for Hashmask tokenId\n     */\n    function changeName(uint256 tokenId, string memory newName) public {\n        address owner = ownerOf(tokenId);\n        require(!paused, \"Contract is paused\");\n\n        require(_msgSender() == owner, \"ERC721: caller is not the owner\");\n        require(validateName(newName) == true, \"Not a valid new name\");\n        require(sha256(bytes(newName)) != sha256(bytes(_tokenName[tokenId])), \"New name is same as the current one\");\n        require(isNameReserved(newName) == false, \"Name already reserved\");\n\n        IERC20(_nctAddress).transferFrom(msg.sender, address(this), NAME_CHANGE_PRICE);\n        // If already named, dereserve old name\n        if (bytes(_tokenName[tokenId]).length > 0) {\n            toggleReserveName(_tokenName[tokenId], false);\n        }\n        toggleReserveName(newName, true);\n        _tokenName[tokenId] = newName;\n        IERC20(_nctAddress).burn(NAME_CHANGE_PRICE);\n        emit NameChange(tokenId, newName);\n    }\n\n    /**\n     * @dev Withdraw ether from this contract (Callable by owner)\n    */\n    function withdraw() onlyOwner public {\n        uint balance = address(this).balance;\n        msg.sender.transfer(balance);\n    }\n\n    /**\n     * @dev See {IERC721-approve}.\n     */\n    function approve(address to, uint256 tokenId) public virtual override {\n        require(!paused, \"Contract is paused\");\n        address owner = ownerOf(tokenId);\n        require(to != owner, \"ERC721: approval to current owner\");\n\n        require(_msgSender() == owner || isApprovedForAll(owner, _msgSender()),\n            \"ERC721: approve caller is not owner nor approved for all\"\n        );\n\n        _approve(to, tokenId);\n    }\n\n    /**\n     * @dev See {IERC721-getApproved}.\n     */\n    function getApproved(uint256 tokenId) public view override returns (address) {\n        require(!paused, \"Contract is paused\");\n        require(_exists(tokenId), \"ERC721: approved query for nonexistent token\");\n\n        return _tokenApprovals[tokenId];\n    }\n\n    /**\n     * @dev See {IERC721-setApprovalForAll}.\n     */\n    function setApprovalForAll(address operator, bool approved) public virtual override {\n        require(!paused, \"Contract is paused\");\n        require(operator != _msgSender(), \"ERC721: approve to caller\");\n\n        _operatorApprovals[_msgSender()][operator] = approved;\n        emit ApprovalForAll(_msgSender(), operator, approved);\n    }\n\n    /**\n     * @dev See {IERC721-isApprovedForAll}.\n     */\n    function isApprovedForAll(address owner, address operator) public view override returns (bool) {\n        require(!paused, \"Contract is paused\");\n        return _operatorApprovals[owner][operator];\n    }\n\n    /**\n     * @dev See {IERC721-transferFrom}.\n     */\n    function transferFrom(address from, address to, uint256 tokenId) public virtual override {\n        require(!paused, \"Contract is paused\");\n        //solhint-disable-next-line max-line-length\n        require(_isApprovedOrOwner(_msgSender(), tokenId), \"ERC721: transfer caller is not owner nor approved\");\n\n        _transfer(from, to, tokenId);\n    }\n\n    /**\n     * @dev See {IERC721-safeTransferFrom}.\n     */\n    function safeTransferFrom(address from, address to, uint256 tokenId) public virtual override {\n        require(!paused, \"Contract is paused\");\n        safeTransferFrom(from, to, tokenId, \"\");\n    }\n\n    /**\n     * @dev See {IERC721-safeTransferFrom}.\n     */\n    function safeTransferFrom(address from, address to, uint256 tokenId, bytes memory _data) public virtual override {\n        require(!paused, \"Contract is paused\");\n        require(_isApprovedOrOwner(_msgSender(), tokenId), \"ERC721: transfer caller is not owner nor approved\");\n        _safeTransfer(from, to, tokenId, _data);\n    }\n\n    /**\n     * @dev Safely transfers `tokenId` token from `from` to `to`, checking first that contract recipients\n     * are aware of the ERC721 protocol to prevent tokens from being forever locked.\n     *\n     * `_data` is additional data, it has no specified format and it is sent in call to `to`.\n     *\n     * This internal function is equivalent to {safeTransferFrom}, and can be used to e.g.\n     * implement alternative mechanisms to perform token transfer, such as signature-based.\n     *\n     * Requirements:\n     *\n     * - `from` cannot be the zero address.\n     * - `to` cannot be the zero address.\n     * - `tokenId` token must exist and be owned by `from`.\n     * - If `to` refers to a smart contract, it must implement {IERC721Receiver-onERC721Received}, which is called upon a safe transfer.\n     *\n     * Emits a {Transfer} event.\n     */\n    function _safeTransfer(address from, address to, uint256 tokenId, bytes memory _data) internal virtual {\n        require(!paused, \"Contract is paused\");\n        _transfer(from, to, tokenId);\n        require(_checkOnERC721Received(from, to, tokenId, _data), \"ERC721: transfer to non ERC721Receiver implementer\");\n    }\n\n    /**\n     * @dev Returns whether `tokenId` exists.\n     *\n     * Tokens can be managed by their owner or approved accounts via {approve} or {setApprovalForAll}.\n     *\n     * Tokens start existing when they are minted (`_mint`),\n     * and stop existing when they are burned (`_burn`).\n     */\n    function _exists(uint256 tokenId) internal view returns (bool) {\n        return _tokenOwners.contains(tokenId);\n    }\n\n    /**\n     * @dev Returns whether `spender` is allowed to manage `tokenId`.\n     *\n     * Requirements:\n     *\n     * - `tokenId` must exist.\n     */\n    function _isApprovedOrOwner(address spender, uint256 tokenId) internal view returns (bool) {\n        require(_exists(tokenId), \"ERC721: operator query for nonexistent token\");\n        address owner = ownerOf(tokenId);\n        return (spender == owner || getApproved(tokenId) == spender || isApprovedForAll(owner, spender));\n    }\n\n    /**\n     * @dev Safely mints `tokenId` and transfers it to `to`.\n     *\n     * Requirements:\n     d*\n     * - `tokenId` must not exist.\n     * - If `to` refers to a smart contract, it must implement {IERC721Receiver-onERC721Received}, which is called upon a safe transfer.\n     *\n     * Emits a {Transfer} event.\n     */\n    function _safeMint(address to, uint256 tokenId) internal virtual {\n        _safeMint(to, tokenId, \"\");\n    }\n\n    /**\n     * @dev Same as {xref-ERC721-_safeMint-address-uint256-}[`_safeMint`], with an additional `data` parameter which is\n     * forwarded in {IERC721Receiver-onERC721Received} to contract recipients.\n     */\n    function _safeMint(address to, uint256 tokenId, bytes memory _data) internal virtual {\n        _mint(to, tokenId);\n        require(_checkOnERC721Received(address(0), to, tokenId, _data), \"ERC721: transfer to non ERC721Receiver implementer\");\n    }\n\n    /**\n     * @dev Mints `tokenId` and transfers it to `to`.\n     *\n     * WARNING: Usage of this method is discouraged, use {_safeMint} whenever possible\n     *\n     * Requirements:\n     *\n     * - `tokenId` must not exist.\n     * - `to` cannot be the zero address.\n     *\n     * Emits a {Transfer} event.\n     */\n    function _mint(address to, uint256 tokenId) internal virtual {\n        require(to != address(0), \"ERC721: mint to the zero address\");\n        require(!_exists(tokenId), \"ERC721: token already minted\");\n\n        _beforeTokenTransfer(address(0), to, tokenId);\n\n        _holderTokens[to].add(tokenId);\n\n        _tokenOwners.set(tokenId, to);\n\n        emit Transfer(address(0), to, tokenId);\n    }\n\n    /**\n     * @dev Destroys `tokenId`.\n     * The approval is cleared when the token is burned.\n     *\n     * Requirements:\n     *\n     * - `tokenId` must exist.\n     *\n     * Emits a {Transfer} event.\n     */\n    function _burn(uint256 tokenId) internal virtual {\n        address owner = ownerOf(tokenId);\n\n        _beforeTokenTransfer(owner, address(0), tokenId);\n\n        // Clear approvals\n        _approve(address(0), tokenId);\n\n        _holderTokens[owner].remove(tokenId);\n\n        _tokenOwners.remove(tokenId);\n\n        emit Transfer(owner, address(0), tokenId);\n    }\n\n    /**\n     * @dev Transfers `tokenId` from `from` to `to`.\n     *  As opposed to {transferFrom}, this imposes no restrictions on msg.sender.\n     *\n     * Requirements:\n     *\n     * - `to` cannot be the zero address.\n     * - `tokenId` token must be owned by `from`.\n     *\n     * Emits a {Transfer} event.\n     */\n    function _transfer(address from, address to, uint256 tokenId) internal virtual {\n        require(ownerOf(tokenId) == from, \"ERC721: transfer of token that is not own\");\n        require(to != address(0), \"ERC721: transfer to the zero address\");\n\n        _beforeTokenTransfer(from, to, tokenId);\n\n        // Clear approvals from the previous owner\n        _approve(address(0), tokenId);\n\n        _holderTokens[from].remove(tokenId);\n        _holderTokens[to].add(tokenId);\n\n        _tokenOwners.set(tokenId, to);\n\n        emit Transfer(from, to, tokenId);\n    }\n\n\n    /**\n     * @dev Internal function to invoke {IERC721Receiver-onERC721Received} on a target address.\n     * The call is not executed if the target address is not a contract.\n     *\n     * @param from address representing the previous owner of the given token ID\n     * @param to target address that will receive the tokens\n     * @param tokenId uint256 ID of the token to be transferred\n     * @param _data bytes optional data to send along with the call\n     * @return bool whether the call correctly returned the expected magic value\n     */\n    function _checkOnERC721Received(address from, address to, uint256 tokenId, bytes memory _data)\n        private returns (bool)\n    {\n        if (!to.isContract()) {\n            return true;\n        }\n        bytes memory returndata = to.functionCall(abi.encodeWithSelector(\n            IERC721Receiver(to).onERC721Received.selector,\n            _msgSender(),\n            from,\n            tokenId,\n            _data\n        ), \"ERC721: transfer to non ERC721Receiver implementer\");\n        bytes4 retval = abi.decode(returndata, (bytes4));\n        return (retval == _ERC721_RECEIVED);\n    }\n\n    function _approve(address to, uint256 tokenId) private {\n        _tokenApprovals[tokenId] = to;\n        emit Approval(ownerOf(tokenId), to, tokenId);\n    }\n\n    /**\n     * @dev Hook that is called before any token transfer. This includes minting\n     * and burning.\n     *\n     * Calling conditions:\n     *\n     * - When `from` and `to` are both non-zero, ``from``'s `tokenId` will be\n     * transferred to `to`.\n     * - When `from` is zero, `tokenId` will be minted for `to`.\n     * - When `to` is zero, ``from``'s `tokenId` will be burned.\n     * - `from` cannot be the zero address.\n     * - `to` cannot be the zero address.\n     *\n     * To learn more about hooks, head to xref:ROOT:extending-contracts.adoc#using-hooks[Using Hooks].\n     */\n    function _beforeTokenTransfer(address from, address to, uint256 tokenId) internal virtual { }\n\n    /**\n     * @dev Reserves the name if isReserve is set to true, de-reserves if set to false\n     */\n    function toggleReserveName(string memory str, bool isReserve) internal {\n        _nameReserved[toLower(str)] = isReserve;\n    }\n\n    /**\n     * @dev Check if the name string is valid (Alphanumeric and spaces without leading or trailing space)\n     */\n    function validateName(string memory str) public pure returns (bool){\n    \n        bytes memory b = bytes(str);\n        if(b.length < 1) return false;\n        if(b.length > 25) return false; // Cannot be longer than 25 characters\n        if(b[0] == 0x20) return false; // Leading space\n        if (b[b.length - 1] == 0x20) return false; // Trailing space\n\n        bytes1 lastChar = b[0];\n\n        for(uint i; i<b.length; i++){\n            bytes1 char = b[i];\n\n            if (char == 0x20 && lastChar == 0x20) return false; // Cannot contain continous spaces\n\n            if(\n                !(char >= 0x30 && char <= 0x39) && //9-0\n                !(char >= 0x41 && char <= 0x5A) && //A-Z\n                !(char >= 0x61 && char <= 0x7A) && //a-z\n                !(char == 0x20) //space\n            )\n                return false;\n\n            lastChar = char;\n        }\n\n        return true;\n    }\n\n    /**\n     * @dev Converts the string to lowercase\n     */\n    function toLower(string memory str) public pure returns (string memory){\n    \n        bytes memory bStr = bytes(str);\n        bytes memory bLower = new bytes(bStr.length);\n        for (uint i = 0; i < bStr.length; i++) {\n            // Uppercase character\n            if ((uint8(bStr[i]) >= 65) && (uint8(bStr[i]) <= 90)) {\n                bLower[i] = bytes1(uint8(bStr[i]) + 32);\n            } else {\n                bLower[i] = bStr[i];\n            }\n        }\n        return string(bLower);\n    }\n}",
  "sourcePath": "/home/thomascyriac/hashmasks/contracts/Masks.sol",
  "compiler": {
    "name": "solc",
    "version": "0.7.0+commit.9e61f92b.Emscripten.clang"
  },
  "schemaVersion": "3.4.1",
  "updatedAt": "2021-08-08T05:36:28.346Z",
  "devdoc": {
    "details": "Extends ERC721 Non-Fungible Token Standard basic implementation",
    "kind": "dev",
    "methods": {
      "approve(address,uint256)": {
        "details": "See {IERC721-approve}."
      },
      "balanceOf(address)": {
        "details": "See {IERC721-balanceOf}."
      },
      "changeName(uint256,string)": {
        "details": "Changes the name for Hashmask tokenId"
      },
      "constructor": {
        "details": "Initializes the contract by setting a `name` and a `symbol` to the token collection."
      },
      "finalizeStartingIndex()": {
        "details": "Finalize starting index"
      },
      "getApproved(uint256)": {
        "details": "See {IERC721-getApproved}."
      },
      "getNFTPrice()": {
        "details": "Gets current Hashmask Price"
      },
      "isApprovedForAll(address,address)": {
        "details": "See {IERC721-isApprovedForAll}."
      },
      "isMintedBeforeReveal(uint256)": {
        "details": "Returns if the NFT has been minted before reveal phase"
      },
      "isNameReserved(string)": {
        "details": "Returns if the name has been reserved."
      },
      "mintNFT(uint256)": {
        "details": "Mints Masks"
      },
      "name()": {
        "details": "See {IERC721Metadata-name}."
      },
      "owner()": {
        "details": "Returns the address of the current owner."
      },
      "ownerOf(uint256)": {
        "details": "See {IERC721-ownerOf}."
      },
      "renounceOwnership()": {
        "details": "Leaves the contract without owner. It will not be possible to call `onlyOwner` functions anymore. Can only be called by the current owner. NOTE: Renouncing ownership will leave the contract without an owner, thereby removing any functionality that is only available to the owner."
      },
      "safeTransferFrom(address,address,uint256)": {
        "details": "See {IERC721-safeTransferFrom}."
      },
      "safeTransferFrom(address,address,uint256,bytes)": {
        "details": "See {IERC721-safeTransferFrom}."
      },
      "setApprovalForAll(address,bool)": {
        "details": "See {IERC721-setApprovalForAll}."
      },
      "supportsInterface(bytes4)": {
        "details": "See {IERC165-supportsInterface}. Time complexity O(1), guaranteed to always use less than 30 000 gas."
      },
      "symbol()": {
        "details": "See {IERC721Metadata-symbol}."
      },
      "toLower(string)": {
        "details": "Converts the string to lowercase"
      },
      "tokenByIndex(uint256)": {
        "details": "See {IERC721Enumerable-tokenByIndex}."
      },
      "tokenNameByIndex(uint256)": {
        "details": "Returns name of the NFT at index."
      },
      "tokenOfOwnerByIndex(address,uint256)": {
        "details": "See {IERC721Enumerable-tokenOfOwnerByIndex}."
      },
      "totalSupply()": {
        "details": "See {IERC721Enumerable-totalSupply}."
      },
      "transferFrom(address,address,uint256)": {
        "details": "See {IERC721-transferFrom}."
      },
      "transferOwnership(address)": {
        "details": "Transfers ownership of the contract to a new account (`newOwner`). Can only be called by the current owner."
      },
      "validateName(string)": {
        "details": "Check if the name string is valid (Alphanumeric and spaces without leading or trailing space)"
      },
      "withdraw()": {
        "details": "Withdraw ether from this contract (Callable by owner)"
      }
    },
    "title": "Hashmasks contract",
    "version": 1
  },
  "userdoc": {
    "kind": "user",
    "methods": {},
    "version": 1
  }
}